:020000040800F2
:100000000000022041A8000885A80008F555000856
:1000100085A8000885A8000885A800080000000041
:1000200000000000000000000000000085A800089B
:1000300085A800080000000085A8000885A8000821
:1000400085A8000885A8000885A80008094A0008B6
:1000500085A8000885A8000881420008C942000858
:100060001143000859430008A143000885A800086F
:1000700085A8000885A8000885A8000885A80008AC
:1000800085A8000885A8000885A8000885A800089C
:1000900085A8000885A8000885A8000885A800088C
:1000A00085A8000885A8000885A8000885A800087C
:1000B00085A8000885A8000885A8000885A800086C
:1000C00085A8000885A8000885A8000885A800085C
:1000D00085A80008F9540008315500086555000846
:1000E00085A80008E749000885A8000885A8000839
:1000F00085A8000885A8000885A8000885A800082C
:1001000085A8000885A800088133000885A8000894
:1001100085A8000885A80008A955000885A800083A
:1001200085A8000885A8000885A8000885A80008FB
:1001300085A8000885A8000885A8000885A80008EB
:1001400085A8000885A8000885A8000885A80008DB
:1001500085A8000885A8000885A8000885A80008CB
:1001600085A8000885A8000885A8000885A80008BB
:1001700085A8000885A8000885A8000885A80008AB
:0801800085A8000885A800080D
:1001C000374AD2F8883043F47003C2F88830354B90
:1001D0001A68002142F001021A6099601A6822F040
:1001E000847222F480321A602F4A5A601A6882B0F0
:1001F00022F480221A60D960009101911A6842F4B9
:1002000080321A601A6802F400320192009A0132B8
:100210000092019A1AB9009AB2F5A06FF2D1214B5F
:100220001B6813F4003318BF01230193019B012BBA
:1002300005D01B4B4FF000629A6002B07047194B1B
:100240001A491A6C42F080521A640A6842F48042D9
:100250000A609A689A609A6842F400429A609A68C2
:1002600042F4A0529A60124A5A601A6842F08072B0
:100270001A6019680B4A8901FBD50E4B40F20561E3
:100280001960936823F003039360936843F00203BB
:100290009360936803F00C03082BFAD1C9E700BF01
:1002A00000ED00E0003802401030002400700040F3
:1002B00019544007003C0240174A1849936803F05C
:1002C0000C03042B03D0082B03D0154B18E0154B5F
:1002D00016E05068536810F4800F03F03F03506835
:1002E00014BF104A0E4AB2FBF3F30B4A5268C2F332
:1002F0000142C0F38810013243435200B3FBF2F3D2
:100300000B60054B9B68C3F303130B441A790B680E
:10031000D3400B60704700BF00380240000000204F
:100320000024F40040787D0140F0BF60024B40F4AF
:100330000030D860704700BF00ED00E0C27803785D
:1003400030B51AB3174A4578D168C943C1F30221C1
:10035000C1F10402D2B205FA02F2D4B20F220A416C
:1003600081780A40224303F1604303F5614312019F
:10037000D2B283F8002303780122590903F01F0346
:1003800002FA03F3084A42F8213030BD5A0901212C
:1003900003F01F0301FA03F32032034941F822302E
:1003A00030BD00BF00ED00E000E100E021F0604161
:1003B00021F07F01014B08439860704700ED00E099
:1003C000044B1A6909B1104301E022EA00001861E8
:1003D000704700BF00ED00E0044B1A6804280CBF12
:1003E00042F0040222F004021A60704710E000E0BC
:1003F00008B501214FF4807000F09EFF00214FF4FA
:100400008070BDE8084000F097BF436823F0407259
:100410000B6822F4807213430A7943EA0223436093
:100420000A69CB681A438B6810B51A438468084B75
:10043000234013434A7943EA42038360C36A23F4A7
:1004400070020B7D013BDBB242EA0353C36210BD75
:10045000FDF7FFC000230360037143718360C36035
:10046000036101230375704710B5074C074B6268A1
:10047000134090E80600114382681143C2680A43A2
:100480001343636010BD00BF00230140E030FCFF58
:100490000023036043608360C3607047836811B1C9
:1004A00043F0010301E023F00103836070474368D8
:1004B00023F4400323F40073194341607047416201
:1004C00082627047436823F01F03194341607047FD
:1004D000044B5A6810B142F4000201E022F4000219
:1004E0005A60704700230140044B5A6810B142F42F
:1004F000800201E022F480025A607047002301402C
:10050000092970B50DD9A1F10A04C66804EB4404A9
:100510000725A54026EA050503FA04F42C43C46028
:100520000AE0066901EB41040725A54026EA050516
:1005300003FA04F42C430461062A0CD8013A446BF4
:1005400002EB82021F23934024EA030301FA02F222
:100550001A43426370BD0C2A0CD8073A046B02EBB5
:1005600082021F23934024EA030301FA02F21A4392
:10057000026370BD0D3AC46A02EB82021F239340EE
:1005800024EA030301FA02F21A43C26270BD8368CF
:1005900043F0804383607047836811B143F4806304
:1005A00001E023F4806383607047836811B143F0F6
:1005B000020301E023F002038360704743680139BE
:1005C00023F4604343EA413343607047436811B109
:1005D00043F4006301E023F4006343607047C06CA0
:1005E00080B27047014B1868704700BF0823014074
:1005F000836811B143F4807301E023F48073836056
:100600007047836811B143F4007301E023F4007371
:1006100083607047044B5A6810B142F4005201E005
:1006200022F400525A60704700230140092970B536
:100630000DD9A1F10A04C66804EB44040725A540BE
:1006400026EA050503FA04F42C43C4600AE00669AF
:1006500001EB41040725A54026EA050503FA04F449
:100660002C430461836B0232C3F30154121BD2B2D8
:1006700002EB82021F24944023EA040391401943B1
:10068000816370BD836B013923F4401343EA015346
:100690008363704782B0002301930190019B19444A
:1006A0000191019B1A6002B07047836823F47023A4
:1006B000194381607047836823F4401319438160B4
:1006C0007047836843F48003836070478068C0F399
:1006D00080507047FFF7FABF436811B143F480635D
:1006E00001E023F4806343607047436811B143F431
:1006F000805301E023F480534360704782B00023AD
:1007000001930190019B283319440191019B1868C2
:1007100080B202B070470123C9B203FA01F1436805
:100720000AB1194301E023EA0101416070470368FF
:10073000194214BF012000207047C943016070476F
:100740004268006810EA112007D00123C9B203FAF9
:1007500001F1114214BF1846002070476FEA1121C1
:100760000160704708B501214FF0005000F0D8FD3E
:1007700000214FF00050BDE8084000F0D1BD30B579
:10078000094D40F6FE732A68834022EA030391E88C
:10079000140014438A681443CA68224302FA00F022
:1007A0001843286030BD00BF007400400023036080
:1007B00043608360C3607047064A012319B1116822
:1007C00083400B4303E01168834021EA0303136075
:1007D000704700BF00740040064A0009012319B1A8
:1007E000516883400B4303E05168834021EA0303CF
:1007F0005360704700740040044B5A6810B142F0D7
:10080000030201E022F003025A60704700740040C6
:1008100082B000230193054B0193019B08331844D8
:100820000190019B196002B0704700BF0074004046
:1008300082B000230193054B0193019B14331844AC
:100840000190019B196002B0704700BF0074004026
:100850000828044B0CBF42EA012242EA0142C2507E
:10086000704700BF2074004082B000230193064B04
:100870000193019B2C3303EB90000190019B1868BE
:1008800080B202B0704700BF00740040064A4FF4C7
:10089000805319B1116883400B4303E01168834012
:1008A00021EA03031360704700740040054B814048
:1008B00012B11A68114302E01A6822EA01011960B4
:1008C000704700BF00740040FFF7F0BF034B5B6B45
:1008D0008140194214BF012000207047007400407D
:1008E000014B81405963704700740040054B1A6802
:1008F0005B6B814011EA030003D00A4214BF012060
:100900000020704700740040014B814059637047DC
:1009100000740040036823F00103036000230360B8
:1009200043608360C360036121234361294B984284
:1009300017D0294B98421BD0284B984220D0284BE7
:10094000984225D0274B98422AD0274B98422ED048
:10095000264B984232D0264B984236D0254B9842AF
:1009600003D13D2243F8082C7047234B984204D111
:100970004FF4746243F8202C7047204B984204D106
:100980004FF4741243F8382C70471D4B984204D131
:100990004FF0746243F8502C70471A4B984203D1C1
:1009A000194A43F8642C7047184B984203D1184AEF
:1009B00043F87C2C7047174B984203D1164A43F8F2
:1009C000942C7047154B984203D14FF03D5243F899
:1009D000AC2C70471060024028600240406002402A
:1009E000586002407060024088600240A06002408F
:1009F000B860024010640240286402404064024033
:100A000058640240706402403D0000208864024047
:100A1000400F0020A064024000003D20B864024066
:100A20000268134B10B513400C68CA6814434A6936
:100A300014438A691443CA6914430A6A14434A6A0C
:100A400014438A6A14434A6B14438A6B2243134348
:100A500003604369CC6A23F007020B6B2343134303
:100A600043610B6943604B6883608B68C36010BD52
:100A70003F801CF00023036043608360C360036118
:100A800043618361C361036243628362C362036340
:100A9000436383637047036811B143F0010301E0CE
:100AA00023F0010303607047036811B143F400436E
:100AB00001E023F4004303607047036811B143F081
:100AC000200301E023F0200303607047416070477A
:100AD000406880B27047036812B143F4002301E01C
:100AE00023F40023036001617047036811B143F4EC
:100AF000802301E023F48023036070470AB1016181
:100B00007047C16070470068C0F3C040704700681C
:100B100000F001007047406900F0380070470A4B50
:100B20000A4A10B50A4CA04294BF184610468B00E2
:100B30004CBF4368036821F0F02121F08211194273
:100B400014BF0120002010BD00600240006402407C
:100B50000F6402400B0611D543694AB143F080038C
:100B60008029436114D0036801F01E0119430EE08F
:100B700023F080038029436104D17047802907D086
:100B8000002AF0D1036801F01E0123EA010101608F
:100B90007047114A114B10B5114CA04294BF1C462E
:100BA000144621F0F02323F0C3122AB1006800F0AC
:100BB0001E0000EAD12202E0406900F080028900B4
:100BC0004CBF6068206823F08213184002D0101CCC
:100BD00018BF012010BD00BF006402400060024049
:100BE0000F64024010B5084A084B094CA04294BF5C
:100BF0001846104611F0005F21F0F02121F082111B
:100C000014BFC160816010BD0064024000600240FA
:100C10000F640240FFF7E6BF044B00221A605A60DF
:100C20009A60DA60024A5A61704700BF003C014096
:100C3000FFFF7F0082790168037970B542B3194ADA
:100C40001568CE4335401560546803F1804303F5C1
:100C50009E33344054601C682143196001689468D5
:100C6000CD432C409460D3682B40D3604379102B44
:100C700006D193680B439360D3681943D16070BD6C
:100C800003F1804303F59E331A681143196070BD68
:100C900003F1804303F59E331A6822EA01021A60C9
:100CA00070BD00BF003C014000230C2203600371B3
:100CB000427183717047024A13691843106170478B
:100CC000003C0140034B5B69034214BF012000203C
:100CD000704700BF003C0140014B5861704700BFA6
:100CE000003C0140054B1A685B69034004D0024296
:100CF00014BF01200020704718467047003C014097
:100D0000014B5861704700BF003C014008B5304BB3
:100D1000984206D10121084600F0DEFA00210120A8
:100D200050E02C4B984206D10121022000F0D4FA69
:100D30000021022046E0284B984206D101210420E0
:100D400000F0CAFA002104203CE0244B984206D16E
:100D50000121082000F0C0FA0021082032E0204BD9
:100D6000984206D10121102000F0B6FA002110208F
:100D700028E01C4B984206D10121202000F0ACFA5B
:100D8000002120201EE0184B984206D1012140206E
:100D900000F0A2FA0021402014E0144B984206D142
:100DA0000121802000F098FA002180200AE0104BF9
:100DB00098420BD101214FF4807000F08DFA002190
:100DC0004FF48070BDE8084000F086BA08BD00BF4F
:100DD000000002400004024000080240000C0240F3
:100DE000001002400014024000180240001C0240A3
:100DF000002002402DE9F0430F6800234FF0010E60
:100E000003260EFA03FC3CEA070230D15A000568BB
:100E100006FA02F4E443254005600D79D0F800801D
:100E200005FA02F9013D49EA0808012DC0F80080E1
:100E300011D885682C4084604C798568944025439E
:100E40008560446824EA0C0444608C7945689C40C1
:100E5000A4B22C434460C46806FA02F524EA0504EF
:100E6000C460CD79C46805FA02F22243C26001333E
:100E7000102BC6D1BDE8F0834FF6FF73036000234B
:100E8000037143718371C371704782B04FF4803333
:100E90000193019B0B430193019BC361C161019BC2
:100EA000C361C3690193C369019302B070470369C9
:100EB000194214BF012000207047006980B27047BA
:100EC0004369194214BF012000207047406980B275
:100ED000704701837047418370470AB101837047AF
:100EE0004183704741617047436959404161704790
:100EF00001F00703C90800EB810010B59B00046AEC
:100F00000F21994024EA01010162016A9A400A43D3
:100F1000026210BD08B501214FF0805000F000FAC8
:100F200000214FF08050BDE8084000F0F9B9014BB6
:100F30001860704720000E42034A136823F0E00354
:100F400018431060704700BF00700040014B1860EC
:100F5000704700BF10000E42014B1860704700BF81
:100F6000A0000E42014B1860704700BFA4000E4263
:100F7000044B1A6810B922F4804201E042F4804226
:100F80001A60704700700040014B1860704700BF46
:100F900024000E420A4A136823F003031843094B46
:100FA00010601A69012942F004021A6101D130BFB0
:100FB00000E020BF1A6922F004021A61704700BFE6
:100FC0000070004000ED00E0074B1A6842F0040298
:100FD0001A601A6842F002021A60044A136943F068
:100FE0000403136130BF70470070004000ED00E063
:100FF000034B5B68034214BF01200020704700BF11
:1010000000700040024A136843EA80001060704795
:10101000007000400A4B1A68002142F001021A6079
:1010200099601A6822F0847222F480321A60054AAC
:101030005A601A6822F480221A60D960704700BF93
:101040000038024010300024024B00221A70187041
:10105000704700BF02380240034A136823F0F803C8
:1010600043EAC0001060704700380240014B18602E
:10107000704700BF00004742064B002201281A704B
:101080001A7002D0042802D07047187070470522E9
:101090001A70704770380240014B1860704700BFEB
:1010A000800E474210B5029C40EA046001435B0891
:1010B000013B41EA821242EA0340014B586010BDF5
:1010C00000380240014B1860704700BF6000474283
:1010D0000907034B41EA8010C3F88400704700BF42
:1010E00000380240014B1860704700BF680047425B
:1010F000014B1860704700BF4C004742034A936899
:1011000023F0EC63194308439060704700380240B5
:10111000034A936823F0784319430843906070476B
:1011200000380240034A936823F003031843906099
:10113000704700BF00380240024B986800F00C0076
:10114000704700BF00380240034A936823F0F00361
:1011500018439060704700BF00380240034A93680C
:1011600023F4E05318439060704700BF00380240FA
:10117000034A936823F4604343EAC00090607047D9
:10118000003802401D4A936803F00C03042B10B58D
:1011900003D0082B03D01A4B18E01A4B16E0516805
:1011A000536811F4800F03F03F03516814BF154AD0
:1011B000134AB2FBF3F3114A5268C2F30142C1F37E
:1011C000881101324B435200B3FBF2F30B4A036028
:1011D00093680D49C3F30313CC5C0368E340436099
:1011E0009468C4F382240C5D23FA04F4846092684A
:1011F000C2F342328A5CD340C36010BD0038024063
:101200000024F40040787D011400002000F44073B5
:10121000B3F5407F084A08D1936820F0704123F469
:10122000F81321F440710B439360136FC0F30B006C
:1012300018431067704700BF00380240014B186028
:10124000704700BF3C0E4742014B1860704700BF1B
:10125000400E4742014B1860704700BF5C01474297
:10126000044B1A6B09B1104301E022EA0000186335
:10127000704700BF00380240044B5A6B09B110435D
:1012800001E022EA00005863704700BF00380240C6
:10129000044B9A6B09B1104301E022EA0000986305
:1012A000704700BF00380240044B1A6C09B110436C
:1012B00001E022EA00001864704700BF00380240D5
:1012C000044B5A6C09B1104301E022EA0000586453
:1012D000704700BF00380240044B1A6909B110433F
:1012E00001E022EA00001861704700BF00380240A8
:1012F000044B5A6909B1104301E022EA0000586129
:10130000704700BF00380240044B9A6909B110438E
:1013100001E022EA00009861704700BF00380240F7
:10132000044B1A6A09B1104301E022EA0000186276
:10133000704700BF00380240044B5A6A09B110439D
:1013400001E022EA00005862704700BF0038024006
:10135000044B1A6D09B1104301E022EA0000186540
:10136000704700BF00380240044B5A6D09B110436A
:1013700001E022EA00005865704700BF00380240D3
:10138000044B9A6D09B1104301E022EA0000986510
:10139000704700BF00380240044B1A6E09B1104379
:1013A00001E022EA00001866704700BF00380240E2
:1013B000044B5A6E09B1104301E022EA000058665E
:1013C000704700BF00380240044B1A7809B110433F
:1013D00001E022EA00001870704700BF0D3802409B
:1013E0004209012A074B01D11B6803E0022A0CBF06
:1013F0001B6F5B6F00F01F0023FA00F000F001008C
:10140000704700BF0038024007B500230193312028
:10141000FFF7E6FF019B01330193019BB3F5A06F3A
:1014200001D00028F3D03120FFF7DAFF003018BFD9
:10143000012003B05DF804FB024A536F43F0807350
:101440005367704700380240034BDB68184214BFF3
:1014500001200020704700BF00380240014B187087
:10146000704700BF0E38024000230928DAB203F1AA
:10147000010302D90A38C0B2F7E740EA0210C0B24D
:101480007047030903EB830300F00F0000EB4300F8
:10149000C0B2704700217F22FF2380E80E00704712
:1014A000044B08B1FF2202E0CA225A6253225A6258
:1014B000704700BF0028004082B0002301930D4B0D
:1014C000DA68520613D44FF0FF32DA60DA68019915
:1014D000013101910199B1F5803F02F0400201D044
:1014E000002AF3D0034BD868C0F3801000E001203D
:1014F00002B0704700280040024AD36823F08003FE
:10150000D36070470028004038B50F4CCA2363628F
:10151000532363620546FFF7CFFF88B1A36823F02A
:101520004003A360A2682B681343A360AB682361E8
:1015300023696A6843EA02432361FFF7DDFF012064
:10154000014BFF225A6238BD0028004082B00023C0
:1015500001930E4BCA225A6253225A62DA6822F071
:10156000A002DA60DA680199013101910199B1F5BF
:10157000003F02F02002054901D0002AF2D0C868DD
:10158000FF23C0F340104B6202B0704700280040B8
:1015900037B51D4CCA23002501956362532363624E
:1015A000FFF78AFF08B9002029E042F20113256005
:1015B0006360A36803F00703A360E368019A013244
:1015C0000192019AB2F5803F03F0040301D0002B91
:1015D000F3D00D4BDA685207E5D59A684FF6FF71E4
:1015E00000229A605961094919619A61DA611A62A7
:1015F000DA601A64FFF7AAFF003018BF0120024B1F
:10160000FF225A6203B030BD00280040FF007F0077
:1016100038B50C4CCA236362532363620546FFF757
:101620004BFF214650B1A36815B143F0100301E010
:1016300023F010038B60FFF75FFF0120FF234B6255
:1016400038BD00BF00280040074BCA225A6253220F
:101650005A629A6810B142F0200201E002F0DF0203
:101660009A60FF225A62704700280040214B70B5F3
:101670009B680C784D788E7820B913F0400321D107
:10168000CB701FE013F0400300D1CB70280240EA7A
:101690000440CC78304340EA0444164DCA236B62C0
:1016A00053236B62FFF708FFF8B104F07F3020F09E
:1016B000FE402860FFF720FFFFF748FF003018BF0B
:1016C000012012E02046FFF7CFFE04462846FFF730
:1016D000CBFE05463046FFF7C7FECB7840EA034015
:1016E00040EA044040EA0524D7E7024BFF225A6251
:1016F00070BD00BF002800400023C370037043701A
:101700008370704738B5104B1A6802F07F3222F0B0
:10171000FE44230C03F03F05C4F3062402F07F02CD
:1017200003F040030D704C708A70CB7058B9284696
:10173000FFF7A7FE08702046FFF7A3FE487010468B
:10174000FFF79FFE887038BD00280040014B986A63
:101750005B6870470028004070B54B78CC788D7876
:101760000E7858BBDA0603D523F010000A30487013
:101770002046FFF779FE04464878FFF775FE0146DC
:101780002846FFF771FE40EA463040EA044040EA4E
:101790000124104DCA236B6253236B62FFF78CFE4A
:1017A00098B124F07F4020F0C0006860FFF7A4FEED
:1017B000FFF7CCFE003018BF012006E0180240EA17
:1017C0000440284340EA4634E3E7024BFF225A62D2
:1017D00070BD00BF00280040012303708370437078
:1017E0000023C370704738B50F4B5A6822F07F4210
:1017F00022F0C0031D0CC3F3042402F03F02C3F324
:101800004233CD704C708A700B7058B92846FFF780
:1018100038FEC8702046FFF734FE48701046FFF7C8
:1018200030FE887038BD00BF002800402DE9F84F19
:101830001546274BD2F80880566892F802B092F805
:1018400000E05478177B28B99B6813F0400322D13D
:10185000D37020E09A6812F0400200D1EA7048EAA2
:10186000060040EA0B0040EA0E40EB7840EA042014
:1018700040EA034040EA0760154BCA225A625322ED
:101880005A62B1F5807F4FF0FF020CBFD861186239
:101890005A62BDE8F88F7046FFF7E6FD82462046A3
:1018A000FFF7E2FD81465846FFF7DEFD0446384665
:1018B000FFF7DAFDEB7848EA060646EA03432343DE
:1018C00043EA0A4444EA092444EA0060D4E700BF3A
:1018D0000028004000230122C3700370437083700E
:1018E0008360027343607047F8B5174BB1F5807F92
:1018F0000CBFDB691B6AC3F30741064601F03F00DA
:1019000001F04001C3F3062503F07F0403F0804794
:10191000D170C3F3056103F080331070557094707B
:1019200011739760536076B9FFF7ABFD10702846CE
:10193000FFF7A7FD50702046FFF7A3FD9070084603
:10194000FFF79FFD1073F8BD0028004082B0002310
:101950000193144BCA225A6253225A629A6819B1EF
:1019600010439860012017E022EA00029A60000A02
:10197000DA680199013101910199B1F5803F02EADC
:10198000000206D1074BDB68184214BF012000207B
:1019900002E0002AECD0F5E7024BFF225A6202B0C7
:1019A000704700BF0028004010B5074BCA245C6296
:1019B0000A43B0F5807F4FF053045C620CBF5A6459
:1019C0009A64FF225A6210BD00280040044BB0F513
:1019D000807F0CBF586C986CC0F30E00704700BF3E
:1019E00000280040074BCA225A6253225A629A6862
:1019F00022F007029A609A681043FF2298605A62A8
:101A0000704700BF00280040044BCA225A6253228C
:101A10005A62FF2258615A62704700BF0028004096
:101A2000014B586980B270470028004082B0002303
:101A30000193124BCA225A6253225A629A6820B109
:101A400042F480629A60012012E022F480629A607F
:101A5000DA680199013101910199B1F5803F02F0F5
:101A6000040201D0002AF3D0044BD868C0F38000F0
:101A7000024BFF225A6202B0704700BF00280040AC
:101A8000074BCA225A6253225A629A6822F4802271
:101A90009A609A6811430843FF2298605A6270471F
:101AA00000280040024B986800F48020704700BF77
:101AB00000280040074BCA225A6253225A629A6891
:101AC00022F4E0029A609A6811430843FF2298606A
:101AD0005A6270470028004070B5094CCA236362FF
:101AE0005323636206460D46FFF7E6FC20B13543FB
:101AF000A561FFF701FD0120FF23636270BD00BFF8
:101B00000028004038B50C4CCA236362532363623B
:101B10000546FFF7D1FC214650B1A36815B143F04B
:101B2000800301E023F080038B60FFF7E5FC0120D8
:101B3000FF234B6238BD00BF00280040074BCA227C
:101B40005A6253225A629A6810B142F4000201E0CC
:101B500022F400029A60FF225A6270470028004077
:101B6000074BCA225A6253225A629A6822F4002210
:101B70009A609A681043FF2298605A62704700BFCB
:101B8000002800400E4B30B5CA245C6253245C62CE
:101B9000DC68E40305D50B4CDD68ED0301D5013CA1
:101BA000FAD1074BDC68E4035CBF0A4310434FF0F3
:101BB000FF0256BFD863002001205A6230BD00BF2B
:101BC0000028004001000200084A936823F40063E3
:101BD00023F0080309B143F40063CA2151620343AF
:101BE000532151629360FF235362704700280040E5
:101BF000F8B51E4B1E6B5B6B06F07F3626F0FE477A
:101C00003D0C23F07F4305F03F0E05F04005CD70FD
:101C100023F0C0040025C7F3062781F800E04F70C9
:101C20008E7003F03F03D570C4F30425C4F342342F
:101C3000557093701470B8B90878FFF722FC0870DB
:101C40004878FFF71EFC48708878FFF71AFC887008
:101C50005078FFF716FC50709078FFF712FC9070E8
:101C60001078FFF70EFC1070F8BD00BF0028004090
:101C7000014B986B704700BF00280040044B4000A8
:101C80001A6C11B922EA000000E010431864704792
:101C900000280040044B1A6C09B1104301E022EA0D
:101CA00000001864704700BF00280040044B1A6C05
:101CB00022F4C0521A641A6C10431864704700BFB3
:101CC00000280040044B1A6C22F4E0621A641A6C7B
:101CD00010431864704700BF00280040044B1A6C82
:101CE00022F4C0421A641A6C10431864704700BF93
:101CF00000280040044B1A6C10B142F0800201E051
:101D000022F080021A64704700280040044B1A6CCD
:101D100010B122F4004201E042F400421A6470471C
:101D20000028004082B000230193054B0193019BE2
:101D300003EB80000190019B196002B0704700BF67
:101D40005028004082B000230193054B0193019B72
:101D500003EB80000190019B186802B0704700BF40
:101D600050280040044B1A6C22F480321A641A6C1A
:101D700010431864704700BF00280040044B1A6CE1
:101D800022F400321A641A6C10431864704700BFC2
:101D900000280040044B1A6C22F480221A641A6C4A
:101DA00010431864704700BF00280040134BCA223C
:101DB00010B55A6253225A62DA68120706D541F208
:101DC0000102DC68240701D5013AFAD10B4AD36835
:101DD00013F008030AD19468E40609D40843D062DA
:101DE000FFF7B4FB003018BF012002E0002000E044
:101DF0001846024BFF225A6210BD00BF0028004067
:101E00000E4BCA2210B55A62532220F004045A62C3
:101E100000F0040031B1996844EA01029A601A6C3A
:101E2000104306E09A6822EA04029A601A6C22EAD9
:101E300000001864014BFF225A6210BD00280040C8
:101E4000054BDB6823F088039B049B0C034214BF03
:101E500001200020704700BF00280040054AD368D9
:101E600080B240F0800003F0800363EA0003D36097
:101E7000704700BF002800400A490B6C8A6803F0D5
:101E8000040310B5CC6803EAD03102EA00030B4327
:101E900006D0A3B213EA101314BF0120002010BD16
:101EA000184610BD00280040054AD368C0F30F1043
:101EB00040F0800003F0800363EA0003D3607047C2
:101EC0000028004008B501214FF48040FFF734FAA4
:101ED00000214FF48040BDE80840FFF72DBA014BC8
:101EE000186070470038014001F0030301F0FC0165
:101EF00001F1804101F59C3110B59B008C680F22E7
:101F00009A4024EA02028A608A68984010438860F6
:101F100010BD014B18607047DC002742014B186070
:101F2000704700BF00042742024B186AC0F300202C
:101F3000704700BF0038014030B5048C24F0010424
:101F40002404240C0484048B058CA4B2ADB224F0C8
:101F5000F304224325F00A0542EA031345F0010584
:101F60009AB229430283018430BD30B5048C24F039
:101F700010042404240C0484058B048C25F440757F
:101F8000A4B22D052D0D24F0A00444F0100445EA60
:101F9000022242EA033344EA01119BB28CB203836A
:101FA000048430BD08B54D4B984206D10121084646
:101FB000FFF7C2F90021012044E0B0F1804F06D1C3
:101FC00001210846FFF7ACF90021012081E0444BD4
:101FD000984206D101210220FFF7A2F90021022038
:101FE00077E0404B984206D101210420FFF798F991
:101FF000002104206DE03C4B984206D101210820CD
:10200000FFF78EF90021082063E0384B984206D193
:1020100001211020FFF784F90021102059E0344BF2
:10202000984206D101212020FFF77AF900212020D3
:102030004FE0304B984209D101210220FFF77CF993
:1020400000210220BDE80840FFF776B92A4B9842EC
:1020500008D101214FF48030FFF76EF900214FF4D1
:102060008030EFE7254B984208D101214FF4003032
:10207000FFF762F900214FF40030E3E7204B98426C
:1020800008D101214FF48020FFF756F900214FF4C9
:102090008020D7E71B4B984206D101214020FFF753
:1020A0003FF90021402014E0174B984206D101214E
:1020B0008020FFF735F9002180200AE0134B984279
:1020C0000BD101214FF48070FFF72AF900214FF462
:1020D0008070BDE80840FFF723B908BD000001404B
:1020E0000004004000080040000C004000100040C8
:1020F0000014004000040140004001400044014041
:102100000048014000180040001C00400020004032
:102110001C4A038890429BB212D002F58062904222
:102120000ED0B0F1804F0BD0A2F58032904207D094
:1021300002F58062904203D002F58062904203D1A2
:102140004A8823F0700313430F4A904208D002F5E7
:10215000806290421FBF23F440730A899BB21343ED
:1021600003804B68C3620B880385064B984203D0FB
:1021700003F58063984201D18B7A03860123838221
:10218000704700BF00000140001000404FF0FF33D7
:10219000436000230380038143808372704701857D
:1021A00082827047038823F070031B041B0C1943C1
:1021B0000180704741627047C1627047406A704752
:1021C000008D80B27047038819B19BB243F00203BF
:1021D00003E023F002031B041B0C038070470388F9
:1021E00019B19BB243F0040303E023F004031B0482
:1021F0001B0C03807047038819B19BB243F0800326
:1022000003E023F080031B041B0C0380704703884A
:1022100023F008031B041B0C038003889BB21943A3
:1022200001807047038823F440731B041B0C038058
:1022300003889BB2194301807047038819B19BB290
:1022400043F0010303E023F001031B041B0C038094
:102250007047038C23F001031B041B0C0384038CC5
:1022600070B58488028B0E8822F073021204120C5F
:1022700023F0020516438B894A882D041343104A24
:102280002D0C2B439042A4B29BB203D002F5806286
:1022900090420ED1CA890D8A23F0080313438A881D
:1022A00023F0040313434A8A24F4407415432C4357
:1022B000A4B28A68848006834263038470BD00BF31
:1022C00000000140038C23F010031B041B0C03844B
:1022D000038C30B58588028B0C8822F4E642120408
:1022E000120C42EA042223F0200394B21B048A89D0
:1022F0001B0C43EA02134A8843EA0213124A904233
:10230000ADB29BB203D002F58062904215D123F0AA
:102310008003CA899BB243EA02124FF6BF7313408F
:102320008A8843EA02130A8A25F4406545EA820551
:102330004A8A45EA82059BB2ADB28A6885800483E9
:102340008263038430BD00BF00000140038C23F48E
:1023500080731B041B0C0384038C30B58488828B30
:102360000D8822F073021204120C23F4007315433B
:102370001B048A891B0C43EA02234A8843EA02238E
:10238000124A9042A4B29BB203D002F580629042FE
:1023900015D123F40063CA899BB243EA02224FF6A7
:1023A000FF3313408A8843EA02230A8A24F4405404
:1023B00044EA02144A8A44EA02149BB2A4B28A682C
:1023C00084808583C263038430BD00BF0000014068
:1023D000038C23F480531B041B0C0384038C30B543
:1023E0008488828B0D8822F4E6421204120C23F4B6
:1023F000005342EA05221B048D891B0C43EA053376
:102400004D8843EA05330B4DA842A4B292B29BB269
:1024100003D005F58065A84205D10D8A24F48044D7
:1024200044EA8514A4B2848082838A6802640384A7
:1024300030BD00BF00000140002303804380838043
:1024400083608381C38103824382704730B5048CEB
:10245000A5B201248C4025EA040400F11803048489
:1024600021F0080038B949084FF68F70CC58204049
:10247000C850C8580AE00439C1F34E0148F6FF704D
:10248000CC582040C8501202C85892B20243CA50D9
:1024900030BD4163704781637047C1637047016419
:1024A0007047038B23F070031B041B0C194301833B
:1024B0007047038B23F4E0431B041B0C43EA012108
:1024C00089B201837047838B23F070031B041B0CBC
:1024D000194381837047838B23F4E0431B041B0C57
:1024E00043EA012189B281837047038B23F00803FB
:1024F0001B041B0C194301837047038B23F40063F7
:102500001B041B0C43EA012189B201837047838BB2
:1025100023F008031B041B0C194381837047838B32
:1025200023F400631B041B0C43EA012189B281835D
:102530007047038B23F004031B041B0C1943018316
:102540007047038B23F480631B041B0C43EA0121B7
:1025500089B201837047838B23F004031B041B0C97
:10256000194381837047838B23F480631B041B0C06
:1025700043EA012189B281837047038B23F08003F2
:102580001B041B0C194301837047038BC3F30E0319
:1025900043EA012189B201837047838B23F08003D2
:1025A0001B041B0C194381837047838BC3F30E03F9
:1025B00043EA012189B281837047038C23F002032F
:1025C0001B041B0C194301847047038C23F0080380
:1025D0001B041B0C194301847047038C23F0200358
:1025E0001B041B0C43EA011189B201847047038C60
:1025F00023F080031B041B0C43EA011189B2018400
:102600007047038C23F400731B041B0C43EA012165
:1026100089B201847047038C23F400631B041B0CF4
:1026200043EA012189B201847047038C23F40053EB
:102630001B041B0C43EA013189B20184704730B599
:10264000048CA5B201248C4025EA04040484038C84
:102650008A4013439BB2038430BD30B5048CA5B2CD
:1026600004248C4025EA04040484038C8A40134328
:102670009BB2038430BD002301220380438082800B
:10268000C38003817047406B7047806B7047C06B9D
:102690007047006C7047038B23F00C031B041B0C6A
:1026A0000383038B9BB2194301837047038B23F48D
:1026B00040631B041B0C0383038B9BB243EA012181
:1026C00089B201837047F8B50C464988A288B4F8EE
:1026D00000E0238900290CBF02260026012A0CBF36
:1026E00002270127BEF1000F0ED1FFF725FCE1887C
:1026F000FFF7D1FF314623893A46FFF736FCE188E0
:10270000BDE8F840FFF7D2BFFFF72FFCE188FFF7E5
:10271000CDFF314623893A46FFF70EFCE188BDE83C
:10272000F840FFF7B8BF838B23F00C031B041B0C8E
:102730008383838B9BB2194381837047838B23F4FC
:1027400040631B041B0C8383838B9BB243EA0121F0
:1027500089B281837047F8B50E880B898A880D4647
:10276000498836B9FFF7E8FBE988BDE8F840FFF78C
:1027700092BF042E06D1FFF7F8FBE988BDE8F840C8
:10278000FFF794BF082EB5F806C0058C1CD125F4C0
:1027900080752D042D0C0584858B068CADB2B6B2E8
:1027A00025F0F30526F4206645EA031346EA0125E1
:1027B0009BB2ADB21A4345F48075828361460584AD
:1027C000BDE8F840FFF7AFBF25F480552D042D0C70
:1027D0000584B0F81CE0068C2EF4407726F40055F2
:1027E0003F056D043F0D6D0C47EA022745EA0135B0
:1027F00047EA0333ADB29BB245F48055838361460B
:102800000584BDE8F840FFF799BF0A884B88134359
:102810008A881343CA8813430A8913434A89134396
:102820008A8913439BB2A0F8443070470023038089
:1028300043808380C3800381438183817047B0F8E4
:10284000443029B16FEA43436FEA53439BB201E03E
:10285000C3F30E03A0F844307047838819B19BB2CC
:1028600043F0040303E023F004031B041B0C8380E8
:102870007047838819B19BB243F0010303E023F052
:1028800001031B041B0C8380704781827047038AFD
:10289000194214BF012000207047C94389B2018248
:1028A0007047038A828911EA030092B203D0114271
:1028B00014BF012000207047C94389B201827047CC
:1028C0000A43A0F84820704783899BB20AB1194394
:1028D00001E023EA010181817047FFF7F5BF83889A
:1028E00019B19BB243F0080303E023F008031B0473
:1028F0001B0C83807047038923F007031B041B0C08
:1029000003817047038923F070031B041B0C1943D8
:10291000018103899BB243F007030381704738B5F7
:102920000D46602D114604464FF0010202D1FFF71B
:102930001CFB01E0FFF700FB218921F07001090475
:10294000090C2943218123899BB243F0070323818A
:1029500038BD038923F070031B041B0C194301814C
:102960007047838823F070031B041B0C83808388CB
:102970009BB2194381807047038923F007031B042E
:102980001B0C038103899BB21943018170470389A2
:1029900023F080031B041B0C038103899BB21943A2
:1029A0000181704710B50489E4B221430A4342EA29
:1029B000032399B2018110BD10B5FFF7F3FF03891E
:1029C00023F077031B041B0C43F07703038110BD36
:1029D00010B5FFF7E7FF03899BB243F480430381FF
:1029E00010BD70B50689048B058C24F44074ADB21B
:1029F00024F0030425F0220526F0070624042A43C8
:102A00003604240C360C44F4807442EA0313314338
:102A100044F001049DB201810483058470BD838864
:102A200019B19BB243F0800303E023F080031B0441
:102A30001B0C83807047A0F85010704708B5254BD9
:102A4000984206D101211020FEF776FC00211020CB
:102A50003BE0214B984208D101214FF40030FEF7B2
:102A60005FFC00214FF400300AE01C4B98420BD170
:102A700001214FF48020FEF753FC00214FF4802009
:102A8000BDE80840FEF74CBC154B984208D1012127
:102A90004FF40020FEF744FC00214FF40020EFE744
:102AA000104B984208D101214FF48010FEF738FCFA
:102AB00000214FF48010E3E70B4B984209D101212C
:102AC0002020FEF739FC00212020BDE80840FEF759
:102AD00033BC08BD001001400044004000480040E5
:102AE000004C004000500040001401407FB5038AB4
:102AF000CA889BB223F440531343038283890E4652
:102B00009BB223F4B053898823F00C0233890B4322
:102B100071890B439BB213438381838AB2899BB231
:102B200023F440731343838204466846FEF72AFB6E
:102B3000194B9C4203D003F580639C4201D1039D55
:102B400000E0029DA389316813F4004F4FF0190291
:102B500002FB05F214BF4D008D00B2FBF5F5A28912
:102B60006426B5FBF6F000010109120406FB1153BF
:102B700007D5D9003231B1FBF6F202F0070210435B
:102B800006E01A013232B2FBF6F303F00F031843EA
:102B900080B2208104B070BD001001404FF4165384
:102BA00003600C2200238380C380038142818381E0
:102BB0007047038A9BB223F4706210B54B880C886F
:102BC00023438C88C98823430B439BB2134303825E
:102BD00010BD0023038043808380C38070478389B6
:102BE00019B19BB243F4005303E023F400531B04D8
:102BF0001B0C83817047038B03F47F430383038B98
:102C00009BB2194301837047838929B16FEA43431B
:102C10006FEA53439BB201E0C3F30E038381704715
:102C2000838A19B19BB243F4006303E023F4006389
:102C30001B041B0C83827047C1F30801818070471D
:102C40008088C0F308007047038A23F00F031B0439
:102C50001B0C0382038A9BB219430182704783894C
:102C600019B19BB243F0020303E023F002031B04FB
:102C70001B0C83817047838923F400631B041B0CA6
:102C8000838183899BB2194381817047038A23F032
:102C900020031B041B0C0382038A9BB2194301828D
:102CA0007047038A19B19BB243F4804303E023F4D5
:102CB00080431B041B0C0382704783899BB243F043
:102CC000010383817047838A19B19BB243F00803E3
:102CD00003E023F008031B041B0C83827047038B63
:102CE000DBB20383038B9BB243EA0121018370476C
:102CF000838A19B19BB243F0200303E023F0200341
:102D00001B041B0C83827047838A19B19BB243F06A
:102D1000100303E023F010031B041B0C8382704795
:102D2000838A23F004031B041B0C8382838A9BB2D7
:102D3000194381827047838A19B19BB243F0020321
:102D400003E023F002031B041B0C83827047838A79
:102D50009BB20AB1194301E023EA01018182704765
:102D6000012310B5C1F342149C4201F01F0103FA84
:102D700001F101D10C3003E0022C0CBF10301430F3
:102D800003680AB1194301E023EA0101016010BDA3
:102D90000388194214BF012000207047C94389B23B
:102DA00001807047012310B5C1F3421401F01F02E6
:102DB0009C4203FA02F201D1838903E0022C0CBF8A
:102DC000038A838A9BB21340028892B243B10123E3
:102DD000090A03FA01F10A4214BF1846002010BD87
:102DE000184610BD090A012303FA01F1C94389B24B
:102DF000018070472DE9F0430F469DB00546012143
:102E00000720FEF72DFA384C0323002601218DF808
:102E100008304FF48000022304F8047B8DF8093059
:102E20008DF80B60FEF71CFA3048FDF773FD304B50
:102E30000E934FF4806313934FF4805307F101090D
:102E40000F944FF48077012414934FF480484FF48B
:102E500000330DA9254817930D961096CDF8449090
:102E60001296CDF854801697189619941A961B96B8
:102E7000FDF7D6FD21461D48FDF70DFE21463846DB
:102E8000FEF71EFA21463846FEF756FA3146384616
:102E9000FEF752FA0623039303A84FF480330493FA
:102EA0000696CDF81480FDF7DFFA07A911480796BA
:102EB0008DF820408DF8214009960A960B968DF8E2
:102EC0003090FDF7A2FA15EA040217D01CA90A48AF
:102ED00041F86C4DFDF78EFF04232246314605482C
:102EE000FDF70EFB0BE000BF6C08002010640240F1
:102EF0004C20014000200140000002401446AA0777
:102F00000ED51CA90223013441F86C3D8B48E4B274
:102F1000FDF770FF0423224601218948FDF7F0FAEE
:102F20006B070ED51CA90426013441F86C6D83484B
:102F3000E4B2FDF75FFF3346224602218048FDF7E9
:102F4000DFFA2F070ED51CA90823013441F86C3D88
:102F50007A48E4B2FDF74EFF042322460321784865
:102F6000FDF7CEFAEE060ED51CA9102341F86C3DF4
:102F700072480134FDF73EFFE4B2042322461946AD
:102F80006F48FDF7BDFAA8060ED51CA92023013411
:102F900041F86C3D6948E4B2FDF72CFF042322465A
:102FA00005216748FDF7ACFA69060ED51CA9402338
:102FB000013441F86C3D6148E4B2FDF71BFF042386
:102FC000224606215E48FDF79BFA2A060ED51CA96B
:102FD0008023013441F86C3D5848E4B2FDF70AFF04
:102FE0000423224607215648FDF78AFAEB050ED541
:102FF0001CA90123013441F86C3D5248E4B2FDF7AD
:10300000F9FE0423224608214D48FDF779FAAF0561
:103010000ED51CA90223013441F86C3D4948E4B2A5
:10302000FDF7E8FE0423224609214548FDF768FA2A
:103030006E050ED51CA90123013441F86C3D4248B0
:10304000E4B2FDF7D7FE042322460A213C48FDF7EF
:1030500057FA28050ED51CA90223013441F86C3D0E
:103060003948E4B2FDF7C6FE042322460B2134485A
:10307000FDF746FAE9040ED51CA90426013441F8EF
:103080006C6D3148E4B2FDF7B5FE334622460C21A3
:103090002B48FDF735FAAA040ED51CA908230134E4
:1030A00041F86C3D2848E4B2FDF7A4FE0423224613
:1030B0000D212348FDF724FA6B040ED51CA910231B
:1030C000013441F86C3D2048E4B2FDF793FE04233F
:1030D00022460E211A48FDF713FAEB0B0ED01CA95D
:1030E0002023013441F86C3D1748E4B2FDF782FE1D
:1030F000042322460F211248FDF702FA621C042322
:10310000D2B210210E48FDF7FBF90120FDF7E0F9DE
:103110000120FDF77FFA01210948FDF772FA01212C
:103120000748FDF765FA01210548FDF7B7F904489E
:10313000FDF72DFA1DB0BDE8F08300BF000002408E
:103140000020014000040240000802400A4B1A78A7
:1031500001329042DFBF00F1FF3003EB800393EDBB
:10316000010ADFED067ADABFBBEECA0A20EE270AB3
:103170009FED030A704700BF6C08002033335340B3
:103180000000000030B5012187B004460846FEF774
:1031900067F801214FF00050FEF786F80025022362
:1031A0000295039504950593BCB9102200926946D7
:1031B000032217488DF804208DF80730FDF71AFE1A
:1031C00002A92046FDF7DBFA20460121FDF7F4FABB
:1031D00021462046FDF71CFB18E0102C16D12022BA
:1031E0000092694603220A488DF804208DF80730C2
:1031F000FDF700FE02A92046FDF7C1FA0121204695
:10320000FDF7DAFA29462846FDF712FB07B030BD74
:103210000000024007EE901A9FED137AF8EE676AFD
:1032200082B0C6EE877A9FED117ADFED116A27EE44
:10323000877AC7EE267A40B9FCEEE77ACDED017ABF
:10324000BDF8041002B0FDF7E3BA102809D1FCEE76
:10325000E77A0020CDED017ABDF8041002B0FDF749
:10326000E7BA02B0704700BF00007A440000804512
:1032700033335340094A136823F004031360084BA7
:10328000084A1B68B3FBF2F3074ADBB2C3EB4311F6
:10329000137003EB8103DB005380704710E000E004
:1032A0000000002000127A00F0080020094B1B7873
:1032B0005843094B002258609A6001221A601A682C
:1032C000054902F00112012AF9D000230B608B603E
:1032D000704700BFF008002010E000E0094B5B8859
:1032E0005843094B002258609A6001221A601A68FC
:1032F000054902F00112012AF9D000230B608B600E
:10330000704700BFF008002010E000E07FB5012109
:103310000820FDF7C9FF194D4FF4A060FDF704F830
:1033200001243223002668468DF800308DF80140D4
:103330008DF802608DF80340FDF700F82846FEF78F
:1033400031FE4FF0FF33029301A953232846ADF815
:103350000430ADF80C60ADF80660FEF7D9FE2146EA
:103360002846FFF79AFA224621462846FFF7B5FA83
:1033700021462846FEF761FF04B070BD000C0040F6
:1033800008B501210E48FFF78CFAB8B10D4B0C4877
:10339000D3ED017AB7EE007A77EE877A9FED0A7A5D
:1033A000F4EEC77AF1EE10FAAABF0022C3ED017A5B
:1033B0005A600121BDE80840FFF77EBA08BD00BF92
:1033C000000C0040F00800200000804F064BDFEDAD
:1033D000077A93ED090A064BB8EE400A93ED017A9D
:1033E000A7EE270A704700BF000C00400000804F86
:1033F000F00800200E4BDFED0F7A93ED097A0E4BAB
:10340000B8EE477AD3ED016AA6EEA77AD3ED026A49
:1034100083ED027A37EE660AB5EEC00AF1EE10FAD5
:1034200042BFF7EE007A37EEE60A30EE070A704741
:10343000000C00400000804FF00800202DE9F04112
:1034400086B0074601A80C460226FDF715FD0125AA
:1034500000234FF00308B7F1804F8DF808608DF816
:103460000A308DF80B508DF809802ED12946284658
:10347000FDF71AFF5CB929462846FDF7F1FE2A46FA
:1034800021466548FDF734FD2A462946A1E0012C76
:1034900040F0A88021462046FDF7E2FE2146304656
:1034A000FDF7DEFE22460F215B48FDF721FD224697
:1034B00041465A48FDF71CFD4FF4004301A9564808
:1034C0000193FDF797FC082356E0554B9F423CD1F2
:1034D00029463046FDF7E8FE84B929462846FDF71F
:1034E000BFFE324606214C48FDF702FD3246072159
:1034F0004948FDF7FDFCC02301936FE0012C0FD17B
:1035000021463046FDF7ACFE324604214348FDF724
:10351000EFFC324605214148FDF7EAFC30232BE061
:10352000022C5FD129460420FDF79AFE224606218F
:103530003C48FDF7DDFC07213A482246FDF7D8FC60
:10354000C023019301A937484AE0374B9F422DD150
:1035500029460420FDF7A8FE94B929463046FDF718
:103560007FFE324606212D48FDF7C2FC3246072178
:103570002A48FDF7BDFCC023019301A927482FE08D
:10358000012C2FD121460820FDF76AFE32460C217E
:103590002648FDF7ADFC0D2124483246FDF7A8FC76
:1035A0004FF44053019301A9204819E0204B9F425A
:1035B00018D129460820FDF777FE9CB929462846F0
:1035C000FDF74EFE324621461348FDF791FC324688
:1035D00029461148FDF78CFCCDF804800E4801A95E
:1035E000FDF708FC00231A4603213846FFF7F9F9D6
:1035F00003A8FFF740F8012403A93846ADF81440AA
:10360000FFF7A9F821463846FEF717FE47F6FF7385
:103610007B6206B0BDE8F081000002400004024079
:10362000000400400008024000080040000C024076
:10363000000C00404FF08042DFED067A536A9BB2E7
:1036400000EE103AB8EE400A47F6FF71516237EECD
:10365000C00A704700FEFF46074ADFED087A536A4A
:103660009BB200EE103AB8EE400A47F6FF71516285
:1036700037EEC00A704700BF0004004000FEFF465E
:10368000074ADFED087A536A9BB200EE103AB8EEB3
:10369000400A47F6FF71516237EEC00A704700BF1B
:1036A0000008004000FEFF46074ADFED087A536A33
:1036B0009BB200EE103AB8EE400A47F6FF71516235
:1036C00037EEC00A704700BF000C004000FEFF4606
:1036D000012801D1802203E0022803D14FF40062C7
:1036E000044B04E0032803D1034B4FF400721A8308
:1036F000704700BF0004024000080240012801D1C9
:10370000802203E0022803D14FF40062044B04E05E
:10371000032803D1034B4FF400725A83704700BF54
:103720000004024000080240012801D1402203E0C9
:10373000022803D14FF48062044B04E0032803D134
:10374000034B4FF480721A83704700BF000402409D
:1037500000000240012801D1402203E0022803D1E9
:103760004FF48062044B04E0032803D1034B4FF471
:1037700080725A83704700BF00040240000002407C
:10378000012805D1074B186920F07F00C0B27047AF
:10379000022801D1034B02E0032801D1024B1B692F
:1037A00000207047000402400008024000BF00BF34
:1037B00000BF00BF00BF00BF00BF00BF00BF704719
:1037C00008B50146FFF784FFFFF7AEFFFFF7EEFFF6
:1037D000FFF7D6FF08B9002008BD0846FFF78EFFA7
:1037E000FFF7E4FF0846FFF7CBFF0028F3D10846B8
:1037F000FFF784FFFFF7DAFF012008BD08B5FFF7E8
:10380000A9FFFFF7D3FFFFF779FFFFF7CFFFFFF720
:103810008BFFFFF7CBFFFFF75BFFBDE80840C5E775
:1038200008B5FFF797FFFFF7C1FFFFF767FFFFF747
:10383000BDFFFFF779FFFFF7B9FFFFF78BFFBDE88B
:103840000840B3E708B5FFF785FFFFF7AFFFFFF7C5
:103850003FFFFFF7ABFFFFF767FFFFF7A7FFFFF79C
:1038600079FFBDE80840A1E708B50146FFF772FF00
:10387000FFF79CFFFFF72CFFFFF798FFFFF754FFC0
:10388000FFF794FFFFF77CFF30B10846FFF762FFB8
:10389000FFF78CFF002008BD0846FFF75BFFFFF72E
:1038A00085FF012008BD38B504460925013D15F006
:1038B000FF05204615D0FFF74DFFFFF777FF0B06FA
:1038C000204602D5FFF704FF01E0FFF717FF49008C
:1038D000C9B2FFF76BFF2046FFF726FFFFF766FF31
:1038E000E4E7BDE8384035E738B505460924FFF779
:1038F000EFFE0021013C14F0FF0413D028464900DC
:10390000C9B2FFF727FFFFF751FF2846FFF70CFF6B
:10391000FFF74CFF2846FFF733FF0028EAD041F0BD
:103920000101E7E72846FFF715FF084638BD704755
:103930007047002070470020704700207047F8B59E
:1039400004460F4616461D46FFF73AFFC8B120460B
:103950003946FFF7A8FF2046FFF786FF68B13146DA
:103960002046FFF7A0FF2046FFF77EFF20462946AE
:10397000FFF799FF2046FFF777FF2046BDE8F840A4
:103980003CE7F8BDF8B505460E461746FFF718FFA9
:1039900050B331462846FFF786FF2846FFF764FFFD
:1039A000044620B92846FFF729FF2046F8BD3946CE
:1039B0002846FFF778FF2846FFF756FF2846FFF70F
:1039C000FFFE711CC9B22846FFF76DFF2846FFF7BE
:1039D0004BFF2846FFF788FF01462846FFF732FFD6
:1039E0002846FFF70BFF0846F8BD2DE9F0419DF88A
:1039F00018500446884617461E4615B90020BDE8F3
:103A0000F081FFF7DDFE0028F8D020464146FFF7A1
:103A10004AFF2046FFF728FF18B92046FFF7EEFEC1
:103A2000ECE739462046FFF73EFF2046FFF71CFF34
:103A3000013D56FA85F5AE4208D0204616F8011B26
:103A4000FFF731FF2046FFF7EBFEF4E73178204621
:103A5000FFF729FF2046FFF7F5FE2046FFF7CEFED1
:103A60000120BDE8F0812DE9F8439DF8206004466F
:103A7000884691461F4616B90020BDE8F883FFF737
:103A80009FFE0028F8D020464146FFF70CFF204655
:103A9000FFF7EAFE18B92046FFF7B0FEECE749460B
:103AA0002046FFF700FF2046FFF7DEFE2046FFF727
:103AB00087FE08F10101C9B22046FFF7F4FE204657
:103AC000FFF7D2FE013E57FA86F6B742204607D0EE
:103AD000FFF70AFF07F8010B2046FFF7A1FEF4E706
:103AE000FFF702FF38702046FFF7ACFE2046FFF7D5
:103AF00085FE0120BDE8F88313B5032201218DF86E
:103B0000052088424FF000028DF804108DF8061051
:103B10008DF807200DD1014602AC0220FDF7A0FB75
:103B2000402344F8083D18482146FDF763F98023F7
:103B30000EE0022810D102ACFDF792FB4FF4806337
:103B400044F8083D10482146FDF754F94FF400634E
:103B5000009321460C4812E0032812D102AC052044
:103B6000FDF77EFB4FF4807344F8083D074821467B
:103B7000FDF740F94FF40073054800932146FDF727
:103B800039F902B010BD00BF00040240000002403D
:103B90000008024007B54FF4A060FCF7C5FB1423F2
:103BA0008DF804300022012301A88DF805308DF82E
:103BB00006208DF80730FCF7C1FB03B05DF804FB6D
:103BC00007B54FF4A060FCF7AFFB15238DF8043068
:103BD0000022012301A88DF805308DF806208DF80C
:103BE0000730FCF7ABFB03B05DF804FB07B54FF4FF
:103BF000A060FCF799FB40238DF8043000220123DC
:103C000001A88DF805308DF806208DF80730FCF7F7
:103C100095FB03B05DF804FB07B54FF4A060FCF71B
:103C200083FB41238DF804300022012301A88DF885
:103C300005308DF806208DF80730FCF77FFB03B0C8
:103C40005DF804FB07B54FF4A060FCF76DFB25237E
:103C50008DF8043001A801238DF805308DF8063069
:103C60008DF80730FCF76AFB03B05DF804FB07B57D
:103C70004FF4A060FCF758FB26238DF8043001A810
:103C800001238DF805308DF806308DF80730FCF7EC
:103C900055FB03B05DF804FB07B54FF4A060FCF7DB
:103CA00043FB27238DF8043001A801238DF805304C
:103CB0008DF806308DF80730FCF740FB03B05DF857
:103CC00004FB07B54FF4A060FCF72EFB34238DF8FE
:103CD00004300222012301A88DF805308DF806205A
:103CE0008DF80730FCF72AFB03B05DF804FB07B53D
:103CF0004FF4A060FCF718FB35238DF80430022246
:103D0000012301A88DF805308DF806208DF80730C5
:103D1000FCF714FB03B05DF804FB07B54FF4A0609B
:103D2000FCF702FB47238DF804300222012301A88F
:103D30008DF805308DF806208DF80730FCF7FEFA77
:103D400003B05DF804FB07B54FF4A060FCF7ECFA94
:103D50001B238DF8043002238DF8053000238DF8E5
:103D6000063001A801238DF80730FCF7E7FA03B00D
:103D70005DF804FB07B54FF4A060FCF7D5FA1C23EF
:103D80008DF8043002238DF8053000238DF80630BD
:103D900001A801238DF80730FCF7D0FA03B05DF8D5
:103DA00004FB07B54FF4A060FCF7BEFA1D238DF8A5
:103DB000043002238DF8053000238DF8063001A869
:103DC00001238DF80730FCF7B9FA03B05DF804FB66
:103DD00007B54FF4A060FCF7A7FA1E238DF8043056
:103DE00002238DF8053000238DF8063001A8012349
:103DF0008DF80730FCF7A2FA03B05DF804FB07B5B5
:103E00004FF4A060FCF790FA32238DF804300223BF
:103E10008DF8053000238DF8063001A801238DF8B8
:103E20000730FCF78BFA03B05DF804FB07B54FF4DD
:103E3000A060FCF779FA36238DF8043000238DF862
:103E400005308DF8063001A801238DF80730FCF706
:103E500075FA03B05DF804FB07B54FF4A060FCF7FA
:103E600063FA37238DF8043002238DF805300023E0
:103E70008DF8063001A801238DF80730FCF75EFAB3
:103E800003B05DF804FB07B54FF4A060FCF74CFAF3
:103E90002E238DF8043002238DF8053000238DF891
:103EA000063001A801238DF80730FCF747FA03B06C
:103EB0005DF804FB07B54FF4A060FCF735FA182352
:103EC0008DF8043002238DF8053000238DF806307C
:103ED00001A801238DF80730FCF730FA03B05DF834
:103EE00004FB07B54FF4A060FCF71EFA19238DF808
:103EF000043002238DF8053000238DF8063001A828
:103F000001238DF80730FCF719FA03B05DF804FBC4
:103F100007B54FF4A060FCF707FA1A238DF80430B8
:103F200002238DF8053000238DF8063001A8012307
:103F30008DF80730FCF702FA03B05DF804FB07B513
:103F40004FF4A060FCF7F0F92B238DF80430022326
:103F50008DF8053000238DF8063001A801238DF877
:103F60000730FCF7EBF903B05DF804FB07B54FF43D
:103F7000A060FCF7D9F92C238DF8043002238DF8CA
:103F8000053000238DF8063001A801238DF8073095
:103F9000FCF7D4F903B05DF804FB07B54FF4A0605B
:103FA000FCF7C2F92D238DF8043002238DF805307B
:103FB00000238DF8063001A801238DF80730FCF7A7
:103FC000BDF903B05DF804FB07B54FF4A060FCF742
:103FD000ABF906238DF8043002238DF805308DF8F7
:103FE000063001A801238DF80730FCF7A7F903B0CC
:103FF0005DF804FB07B54FF4A060FCF795F90723C3
:104000008DF8043002238DF805308DF8063001A8B4
:1040100001238DF80730FCF791F903B05DF804FB3C
:1040200007B54FF4A060FCF77FF908238DF8043042
:1040300002238DF805308DF8063001A801238DF894
:104040000730FCF77BF903B05DF804FB07B54FF4CC
:10405000A060FCF769F909238DF8043002238DF87C
:1040600005308DF8063001A801238DF80730FCF7E4
:1040700065F903B05DF804FB07B54FF4A060FCF7E9
:1040800053F90A238DF8043002238DF805308DF89A
:10409000063001A801238DF80730FCF74FF903B073
:1040A0005DF804FB07B54FF4A060FCF73DF917235A
:1040B0008DF8043002238DF805308DF8063001A804
:1040C00001238DF80730FCF739F903B05DF804FBE4
:1040D00007B528238DF8043002238DF805308DF8BC
:1040E000063001A801238DF80730FCF727F903B04B
:1040F0005DF804FB2DE9FF41044601214FF48040A7
:10410000FDF7DEF8E5071FD50323012500268DF80E
:1041100005306946022354488DF8073000958DF824
:104120000460FCF767FE31462846FDF7DDFE1023EC
:1041300002A88DF80D3002958DF80C608DF80E50A8
:10414000FCF778FDFFF740FFA0071FD502250323EA
:104150000026694645488DF8053000958DF80460C5
:104160008DF80750FCF746FE01212846FDF7BCFEFE
:1041700010238DF80D3002A801238DF80E30029522
:104180008DF80C60FCF756FDFFF734FF610720D572
:104190000323022704260025694634488DF805309C
:1041A00000968DF804508DF80770FCF723FE394611
:1041B0003846FDF799FE10238DF80D3002A8012333
:1041C0008DF80E3002968DF80C50FCF733FDFFF79A
:1041D00027FF220722D5082600254FF003080227D3
:1041E0006946224800968DF804508DF805808DF8B8
:1041F0000770FCF7FFFD41463846FDF775FE1023BA
:104200008DF80D300DEB060001238DF80E3002966F
:104210008DF80C50FCF70EFDFFF718FFE3061FD5D5
:104220000323102400250226694610488DF8053026
:1042300000948DF804508DF80760FCF7DBFD042135
:104240003046FDF751FE012302A88DF80E3002948E
:104250008DF80C508DF80D40FCF7ECFCFFF70CFFCF
:1042600004B0BDE8F08100BF000402400008024035
:10427000024B03EB800090ED000A7047FC08002021
:1042800010B501210E480F4CFCF711FE20B1FFF7CD
:104290009DF884ED050A0CE0FFF798F8D4ED057A57
:1042A000B4EEE70AF1EE10FA08D430EE670A84EDB6
:1042B000000A0120BDE81040FCF722BD10BD00BF80
:1042C00000040240FC08002010B502210E480F4CEB
:1042D000FCF7EDFD20B1FFF779F884ED060A0CE05C
:1042E000FFF774F8D4ED067AB4EEE70AF1EE10FAAF
:1042F00008D430EE670A84ED010A0220BDE81040C0
:10430000FCF7FEBC10BD00BF00080240FC08002006
:1043100010B504210E480F4CFCF7C9FD20B1FFF782
:1043200055F884ED070A0CE0FFF750F8D4ED077A52
:10433000B4EEE70AF1EE10FA08D430EE670A84ED25
:10434000020A0420BDE81040FCF7DABC10BD00BF33
:1043500000080240FC08002010B508210E480F4C50
:10436000FCF7A5FD20B1FFF731F884ED080A0CE059
:10437000FFF72CF8D4ED087AB4EEE70AF1EE10FA64
:1043800008D430EE670A84ED030A0820BDE8104027
:10439000FCF7B6BC10BD00BF00080240FC080020BE
:1043A00010B510210E480F4CFCF781FD20B1FFF72E
:1043B0000DF884ED090A0CE0FFF708F8D4ED097A4E
:1043C000B4EEE70AF1EE10FA08D430EE670A84ED95
:1043D000040A1020BDE81040FCF792BC10BD00BFDD
:1043E00000080240FC0800202DE9F0478AB01E4674
:1043F00000238DF80630824B4FF002090327012479
:10440000984205468A4690468DF804908DF80570CE
:104410008DF8074046D17B4B214620461A80FCF799
:104420004FFFF6B921462046FCF71AFF0AA94FF4C0
:10443000706341F8283D7448FCF7DCFC22460821F3
:104440007148FCF755FD224609216F48FCF750FDE5
:1044500022460A216C48FCF74BFD22460B216A4894
:1044600087E0012E40F0878031461020FCF7F8FEEF
:104470000AA94FF4D44341F8283D6448FCF7BAFC3C
:10448000324609216148FCF733FD32460B215F4873
:10449000FCF72EFD32460D215C48FCF729FD324623
:1044A0000E2146E05A4B984226D1564B21464846AB
:1044B0005A80FCF705FF002E5DD121460420FCF751
:1044C000CFFE0AA94FF4707341F8283D5148FCF71C
:1044D00091FC3A4606214F48FCF70AFD3A4607216F
:1044E0004C48FCF705FD3A4608214A48FCF700FD18
:1044F0003A46092147483CE0474B98421BD1414B83
:1045000021464FF480309A80FCF7CEFE9EBB2146B8
:104510001020FCF7A5FE0AA9602341F8283D3B487E
:10452000FCF768FC3A4605213848FCF7E1FC3A46BE
:10453000062136481DE0394B98421CD1314B2146AB
:104540004020DA80FCF7B0FEAEB921464846FCF7C1
:1045500087FE0AA94FF4404341F8283D3048FCF754
:1045600049FC09220E212E48FCF7C2FC2C480922E6
:104570000F21FCF7BDFC002402A92846ADF808A0D5
:10458000CDF80C80ADF80A40ADF810408DF812401F
:10459000FDF7BEFD6023ADF8143008230126ADF809
:1045A000223005A94FF480732846ADF82430ADF8C9
:1045B0001660ADF818400794ADF82040ADF82640DD
:1045C000FDF747FE05A928460794FDF77BFE05A9E0
:1045D00028460794FDF7BAFE05A928460794FDF77B
:1045E000F7FE31462846FDF728FE31462846FDF7FE
:1045F00002FE31462846FEF722F90AB0BDE8F087F0
:104600000000014024090020000002400010024088
:104610000004014000080240004001400018004032
:104620000004024038B5054D2C88844228BF04465A
:1046300021460348FDF72DFF2C8138BD24090020B9
:104640000000014038B5054D2C88844228BF04463F
:1046500021460348FDF71FFF6C8138BD2409002067
:104660000000014038B5054D2C88844228BF04461F
:1046700021460348FDF711FFAC8138BD2409002015
:104680000000014038B5054D2C88844228BF0446FF
:1046900021460348FDF703FFEC8138BD24090020C3
:1046A0000000014038B5054D6C88844228BF04469F
:1046B00021460348FDF7EDFE2C8238BD2409002079
:1046C0000004014038B5054D6C88844228BF04467B
:1046D00021460348FDF7DFFE6C8238BD2409002027
:1046E0000004014038B5054D6C88844228BF04465B
:1046F00021460348FDF7D1FEAC8238BD24090020D5
:104700000004014038B5054D6C88844228BF04463A
:1047100021460348FDF7C3FEEC8238BD2409002082
:104720000004014038B5054DAC88844228BF0446DA
:1047300021460348FDF7ADFE2C8338BD2409002037
:104740000040014038B5054DAC88844228BF04467E
:1047500021460348FDF79FFE6C8338BD24090020E5
:104760000040014038B5054DEC88844228BF04461E
:1047700021460348FDF78DFEAC8338BD2409002097
:104780000018004038B5054DEC88844228BF044627
:1047900021460348FDF77FFEEC8338BD2409002045
:1047A0000018004007B58DF804008DF805100020B2
:1047B00001A98DF806208DF80730FCF757FF03B0EC
:1047C0005DF804FB07B58DF805108DF8070001A909
:1047D00000208DF806208DF80430FCF7BDFF03B0F3
:1047E0005DF804FBF7B507460E46002001A91C46FC
:1047F0001546FCF787FF9DF804303B709DF80530A7
:1048000033709DF806302B709DF80730237003B08D
:10481000F0BDF7B507460E46002001A91C46154617
:10482000FCF7E1FF9DF807303B709DF805303370D1
:104830009DF806302B709DF80430237003B0F0BD56
:104840001FB501214FF08050FCF72EFD0120FCF731
:104850006EFB0020FDF776FA45F25003984231D006
:104860000120FCF709FC41F6FF744120FCF7B8FD7C
:1048700028B901340A20A4B2FEF730FDF5E71CB3D5
:104880004FF48070FCF7C2FC0120FCF7D7FC04A8B1
:1048900000247F23029340F80C4DFF230393FCF781
:1048A00033FE2346224621462046FFF77BFF0122A6
:1048B000114605231020FFF785FF45F250012046E1
:1048C000FDF730FA002000E0012004B010BDF0B583
:1048D00089B004460F464FF48070002116461D46ED
:1048E000FDF734F88DF81C40002404AA4FF08043F3
:1048F0004FF480712046069305948DF813408DF88F
:1049000010708DF811608DF81250FCF78FFF4FF486
:104910008050FDF7C9FA4FF40030FCF7F1F901219E
:104920004FF48050FDF76CFA01214FF48070FDF7D1
:104930000DF84FF40033029308230DEB03008DF8BC
:104940000C4001248DF80D308DF80E40FCF772F903
:1049500029238DF8043001A802238DF805308DF845
:1049600006308DF80740FBF7E9FC09B0F0BD30B523
:10497000054685B000200C46FDF758F82846FDF79F
:1049800031F82046FDF740F84FF48040FDF78CFAEF
:104990004FF48000FCF7B4F901214FF48040FDF79B
:1049A0002FFA0120FDF742F84FF480030293002311
:1049B0008DF80C3008230DEB030001248DF80D3029
:1049C0008DF80E40FCF736F903238DF8043001A86A
:1049D00002238DF805308DF806308DF80740FBF77F
:1049E000ADFC05B030BD08B54FF48070FDF728FA76
:1049F000012803D14FF48070FDF730FA4FF40030F6
:104A0000BDE80840FCF77CB908B54FF48060FDF7BD
:104A100017FA012803D14FF48060FDF71FFA4FF415
:104A20008000BDE80840FCF76BB930B56424B0FBEA
:104A3000F4F504FB1504EDB2E4B2132D84BF643425
:104A4000E4B204EB94030720B3FBF0F5C5EBC50516
:104A50005B1B0D4D0D4415F8015C2A4412FA83F2DC
:104A6000A30792B204D102299CBF02F1FF3292B295
:104A7000B2FBF0F0C0EBC000101A80B2002808BFF3
:104A80000720C0B230BD00BFF8EF000810B5074CDA
:104A9000E31DA21D611D201DFFF7BBFEE31CA21C30
:104AA000611C2046BDE81040FFF79CBE4409002071
:104AB00030B585B004460D46FDF774FA564B9C425E
:104AC00006D101210846FCF7FBFBFFF73CF965E046
:104AD000B4F1804F06D101210846FCF7E5FBFFF752
:104AE00049F97BE04D4B9C4206D101210220FCF7A5
:104AF000DBFBFFF756F971E0494B9C4206D10121DF
:104B00000420FCF7D1FBFFF763F967E0454B9C42BB
:104B100006D101210820FCF7C7FBFFF770F95DE023
:104B2000414B9C4206D101211020FCF7BDFBFFF751
:104B30007DF953E03D4B9C4206D101212020FCF73A
:104B4000B3FBFFF789F949E0394B9C4206D10121BB
:104B50000220FCF7B5FBFFF796F91FE0354B9C42AE
:104B600007D101214FF48030FCF7AAFBFFF7A2F92F
:104B700014E0314B9C4207D101214FF40030FCF787
:104B80009FFBFFF7AEF909E02C4B9C4208D10121B5
:104B90004FF48020FCF794FBFFF7BAF9A7231EE03F
:104BA000274B9C4206D101214020FCF77DFBFFF7FB
:104BB000C6F913E0234B9C4206D101218020FCF76B
:104BC00073FBFFF7D3F909E01F4B9C4209D1012188
:104BD0004FF48070FCF768FBFFF7DFF95323ADF863
:104BE0000430002301A92046013DADF80C30ADF89A
:104BF00006300295FDF78CFA20460121FDF74DFEA7
:104C0000012211462046FDF768FE01212046FDF7EE
:104C100014FB05B030BD00BF00000140000400409F
:104C200000080040000C004000100040001400404C
:104C300000040140004001400044014000480140A0
:104C400000180040001C0040002000402DE9F04109
:104C500086B00646684688461546FCF70DF90023DF
:104C60008DF8063003F1804303F5883302270124D1
:104C70009E428DF804708DF805708DF8074031D193
:104C800021461020FCF71CFB9DB921462046FCF76D
:104C9000E7FA072209219948FCF72AF90A219748DF
:104CA0000722FCF725F94FF4C06300936946934847
:104CB00013E0012D13D129463846FCF7D1FA07221B
:104CC00006218F48FCF714F9072211468C48FCF79F
:104CD0000FF9C0238A4800936946FCF78BF8FEF76A
:104CE000B1FFE6E0874B9E4231D121464FF40030C0
:104CF000FCF7DAFA95B921462046FCF7B1FA07220B
:104D000039467E48FCF7F4F803217C480722FCF77B
:104D1000EFF80C2300936946784813E0012D13D176
:104D200029460820FCF79CFA072205217648FCF763
:104D3000DFF8062174480722FCF7DAF8602372488E
:104D400000936946FCF756F8FEF791FFB1E06F4B10
:104D50009E4249D121464FF48020FCF7A5FA9DB927
:104D600021463846FCF77CFA07220A216448FCF702
:104D7000BFF80B2162480722FCF7BAF84FF44063F2
:104D8000009369465E482AE0012D13D1294604208C
:104D9000FCF766FA07220A215D48FCF7A9F80B2107
:104DA0005B480722FCF7A4F84FF440630093694680
:104DB000574814E0022D14D121460820FCF750FA80
:104DC000072208215048FCF793F809214E48072292
:104DD000FCF78EF84FF440734B4800936946FCF79C
:104DE00009F8FEF759FF64E04A4B9E421CD1214668
:104DF0004FF40020FCF758FA9DB921462046FCF7F5
:104E00002FFA082229463D48FCF772F821463B4814
:104E10000822FCF76DF80323694638480093FBF736
:104E2000E9FFFEF74EFF44E03B4B9E4223D1214673
:104E30004FF48010FCF738FAD5B921460C20FCF766
:104E40000FFA08220C213248FCF752F808223946A2
:104E50002D48FCF74DF84FF4805369462C480093D9
:104E6000FBF7C8FF0423694627480093FBF7C2FFFE
:104E7000FEF73DFF1DE0294B9E421AD1214620201E
:104E8000FCF71EFA9DB921460420FCF7E9F9082237
:104E900006211F48FCF72CF807211D480822FCF7C3
:104EA00027F8C02369461A480093FBF7A3FFFEF7D3
:104EB00034FF0023ADF80C30ADF80E30ADF81030F3
:104EC000ADF8143002A90C233046ADF81230CDF8FD
:104ED0000880FDF70BFE0122304640F22551FDF718
:104EE0003FFF304640F22551FDF77CFF012130465F
:104EF000FDF775FE06B0BDE8F08100BF000002407E
:104F00000004024000440040000C02400048004001
:104F100000080240004C00400050004000140140D6
:104F200010B50446FDF788FE80212046FDF730FFCE
:104F30000028F9D010BD4FF0FF307047024B0C2213
:104F40001A604FF0FF307047EC1F0020024B0B221D
:104F50001A604FF0FF307047EC1F00204FF40053F1
:104F60004B600020704701207047022881BF034B2F
:104F7000092200201A6098BF01207047EC1F002012
:104F8000024B16221A604FF0FF307047EC1F0020D2
:104F9000024B1F221A604FF0FF307047EC1F0020B9
:104FA0000020704730B590B900F1804000F588309E
:104FB0000B4605465C1AA24206DD0488A406FCD511
:104FC000AC8803F8014BF5E722EAE27030BD034BF1
:104FD00009221A604FF0FF3030BD00BFEC1F0020E7
:104FE0004FF400534B60002070474FF0FF30704784
:104FF000024B02221A604FF0FF307047EC1F002076
:10500000024B0A221A604FF0FF307047EC1F00205D
:10501000012830B505D002281BD111480B460546A2
:1050200012E00F480B4605465C1AA2420FDD0488C9
:105030006406FCD513F8014BAC80F5E704886406E0
:10504000FCD513F8014BAC805C1AA242F6DC10468A
:1050500030BD044B09221A604FF0FF3030BD00BF55
:1050600000100140EC1F002008B504220249012075
:10507000FFF7CEFFFEE700BF04F0000808B50D4BB8
:105080001A680AB90C4A1A601B68EFF308821844C0
:1050900090420AD9192209490220FFF7B9FF084BAB
:1050A0000C221A604FF0FF3008BD024A106018460B
:1050B00008BD00BF4C090020F01F002009F00008C7
:1050C000EC1F00200FB4F0B587B00CAB53F8044BC5
:1050D0000193217800296CD05C290AD163786E2B6A
:1050E00004F1020403D0722B5CD10D2157E00A2198
:1050F00055E0252952D16378642B14D0732B4BD102
:10510000019B1D681A1D0192013D15F8011F002920
:1051100042D02A48FDF790FD40212848FDF738FE8F
:105120000028F9D0F1E7019B1A1D1B680192002BA2
:1051300005D130228DF808208DF809301DE0BFBF61
:105140002D228DF808205B420DF10902A8BF02AAAA
:105150000521002642F210700A2793FBF0F505B9ED
:1051600036B105F13006167000FB15330132012609
:10517000013990FBF7F0F0D111700DF1070515F82A
:10518000011F49B10D48FDF757FD40210B48FDF7C0
:10519000FFFD0028F9D0F2E7023403E001340748AC
:1051A000FDF74AFD40210548FDF7F2FD0028F9D042
:1051B0008FE707B0BDE8F04004B070470010014031
:1051C0002DE9F041ADF5AA6DA7AF38469E4DDFF849
:1051D000B48200F01FFA39464D229C48002405F0A5
:1051E000BFF988269A4B2C60324669466C60AC60E9
:1051F000EC602C616C61AC61EC612C626C62AC6245
:10520000EC622C636C63AC63EC632C646C64AC6424
:10521000EC642C656C65AC65EC652C666C66AC6604
:10522000EC662C676C67AC67EC673846C5F8804065
:10523000C5F88440C5F88840C5F88C40C5F8904052
:10524000C5F89440C5F89840C5F89C40C5F8A04002
:10525000C5F8A440C5F8A840C5F8AC40C5F8B040B2
:10526000C5F8B440C5F8B840C5F8BC40C5F8C04062
:10527000C5F8C440C5F8C840C5F8CC40C5F8D4400E
:10528000C5F8D840C5F8E040C5F8E440C5F8EC40A2
:10529000C5F8F040C5F8F840C5F8FC40C5F8004135
:1052A000C5F80441C5F80841C5F80C41C5F81041DE
:1052B000C5F81441C5F81831664BC5F81C31C5F85E
:1052C000208105F04DF932466946C9A805F048F934
:1052D00032466946EBA805F043F9324669460DF2BD
:1052E000344005F03DF95C4BC7F82C3200265B4B8F
:1052F000C7F83032394687F8346287F8356287F864
:10530000366287F83762C7F83842C7F83C42C7F8B8
:105310004042C7F844424FF41272514805F020F958
:105320003E70394687F880604FF42D7287F88160AF
:105330004C4887F8016187F8816187F8826187F8B6
:10534000826287F8836287F8976287F8986287F8A5
:105350009A628DF8006087F89B628DF88060C7F8CC
:105360009C428DF88160C7F8A0428DF80161C7F8B2
:10537000A4428DF88161C7F8A8428DF8826187F850
:1053800099628DF882628DF883628DF897628DF84C
:10539000986205F0E5F8344B344A5C601C6083F891
:1053A000286083F82960DA62C3F83080304BDE80F1
:1053B0001C601E7183F826609C6283F82C609C64DC
:1053C000DC641C655C659C65DC651C6683F8646058
:1053D00083F86560274B38469E71DE711E725E72DF
:1053E0009E7200F021FD39464FF48472224805F088
:1053F000B7F8224B01229A761A775A77204A5E76BE
:105400001121D9769E771D6283F8246083F8256088
:1054100083F8266083F827601E8583F8A26083F8EE
:10542000A360A3F8A460C3F82041C3F82441C3F8E3
:105430002841C3F82C4183F83061C3F8A861136098
:105440000DF5AA6DBDE8F0818C1C002054090020E8
:105450006891ED3C2FDD243E00409C45000020413A
:1054600004170020D81900207C1F00200000A04154
:105470004C19002068100020A4090020C81D00203D
:1054800024000020CDCCCC3E1FB5134C204600F0AC
:1054900013FA9FED121ADFED120A1248B0EE080A55
:1054A000002102F05FFC104802F01AFF0F4803F0E1
:1054B00053F9204600F088FB012300220293019259
:1054C000009319460A4801F0A3FB0A4804B0BDE85E
:1054D000104007F017BF00BF540900200AD7A33CB3
:1054E0000000C34404170020D81900207C1F0020AE
:1054F0006810002023F000080B4B1A88920610B5A4
:1055000010D59C880948A4B200F0B3FC18B9E1B2E8
:10551000064800F09CFC40F225510348BDE81040CD
:10552000FDF760BC10BD00BF00100140A4090020C1
:1055300008B540F225510948FDF734FC68B1074829
:10554000FDF77EFBC1B2064802F094FD40F2255102
:105550000248BDE80840FDF745BC08BD00440040D6
:105560004C19002008B540F225510D48FDF71AFCF2
:10557000A8B10B48FDF764FB0A4991F88121D3B229
:105580005A1C0B44C0B2D2B281F8812183F8820147
:1055900040F225510248BDE80840FDF723BC08BD94
:1055A00000480040D8190020012108B50F48FDF738
:1055B00078F90128014617D10D4B0C485A8A01325F
:1055C0005A829A8A01329A82DA8A0132DA821A8BF4
:1055D00001321A835A8B01325A839A8B01329A8391
:1055E000BDE80840FDF768B908BD00BF00100040E5
:1055F0005409002010B514240221054800F08AF94E
:10560000013C6420FDF76AFE14F0FF04F4D110BDE4
:1056100054090020002242828282C2820283428395
:105620008283C283A0F84220A0F84420A0F846203C
:1056300000220263C263024A4263024A82637047E5
:10564000000020410000304100224FF46121014858
:10565000FFF7FCBA0010014008B50548FDF7ECFA69
:1056600080210348FDF794FB0028F9D008BD00BF56
:105670000010014010B504462DED028B90ED0C8A10
:105680000120FDF763FD94ED0E7ADFED087AE0EE80
:10569000077A9FED070A27EE800ADFED067AA8EE6B
:1056A000270ABDEC028B84ED0C0A10BDC3F5A83EA1
:1056B000CDCC4C3ECDCC4C3F9FED010A704700BF96
:1056C0000000000010B504462DED028B90ED0F8A0E
:1056D0000620FDF73BFDDFED0C7A9FED0C7A30EEF6
:1056E000670AC0EE077AB3EE090A37EE800ADFEDEB
:1056F000087A20EE270ADFED077AA8EE270ABDEC2C
:10570000028B84ED0F0A10BD5C8F423F0AD7233B0A
:10571000CDCC4C3ECDCC4C3FB0F84420B0F842301C
:10572000013210B50133A0F84420B0F846209BB2F6
:105730000132132B0446A0F84230A0F8462046D987
:105740000023A0F84230FDF741FEB4F8463084ED66
:10575000030AB3F5FA7F3AD94FF4FA73A4F8463046
:105760002046FFF7AFFF204684ED000AFFF782FFD7
:10577000F1EE0C7AB4EEE70AF1EE10FA84ED020ACB
:10578000D4ED0D7A12DDB4EEE70AF1EE10FA0DD584
:10579000B4F8403001339BB2132BA4F8403016D933
:1057A0004FF400710E48FBF79FFB10E09FED0D7A60
:1057B00077EE877AB4EEE70AF1EE10FA07DD002300
:1057C000A4F840304FF400710548FBF784FBB4F8AF
:1057D0004430632B84BF0023A4F8443010BD00BFC5
:1057E00000040240CDCC4C3E064B1B680362064BC6
:1057F0001B684362054B1B688362054B1B888385CE
:10580000704700BF107AFF1F147AFF1F187AFF1F1E
:10581000227AFF1F07B5002301218DF806304020B2
:1058200003238DF804108DF805308DF80710FBF771
:1058300017FD02A94FF4004341F8083D0248FBF769
:10584000D9FA03B05DF804FB0018024099B922B9F7
:105850004FF400410848FBF73CBB012A04D14FF448
:1058600000410548FBF737BB022A04D14FF4004141
:105870000148FBF739BB704700180240704770477A
:1058800007B5002301218DF80630022003238DF88F
:1058900004108DF805308DF80710FBF7E1FC02A924
:1058A0004FF4007341F8083D0248FBF7A3FA03B038
:1058B0005DF804FB0004024010B50446FDF7DAFC75
:1058C000FDF724FD2046FFF7BFFE2046FFF7A2FFAD
:1058D0002046FFF7D5FF0D4C04214FF47050FDF723
:1058E00089FA4FF47A710A48FFF7E2F84FF4007131
:1058F0002046FBF7EEFA4FF4FA70FDF7EFFC204676
:105900004FF40071BDE81040FBF7E5BA0004024017
:105910000010004021B94FF400710948FBF7DBBAD1
:10592000012904D14FF400710548FBF7D2BA0229CE
:1059300004D14FF400710248FBF7D6BA704700BF9C
:105940000004024070B52DED028B84B002A80D4614
:105950000124B0EE408AFBF78FFA032300268DF86E
:105960000D30A5424FF002038DF80C408DF80E600B
:105970008DF80F3012D129461020FBF771FC4FF43F
:10598000807402A925480294FBF734FA2146234883
:10599000FBF7A1FA31464FF0804026E0022D11D1ED
:1059A00021461020FBF75CFC4FF4806502A91B48E0
:1059B0000295FBF71FFA29461848FBF78CFA214697
:1059C000174812E0032D12D121461020FBF748FCA6
:1059D0004FF4805502A911480295FBF70BFA2946AE
:1059E0000E48FBF778FA0F482146FDF727FDFCEE3D
:1059F000C87A0123CDED017ABDF804400A48224659
:105A00001946FEF7F1FC0023224619460748FEF727
:105A1000EBFC04B0BDEC028B70BD00BF0010024077
:105A20000004004000080040000001400018004051
:105A3000012902D14FF4807108E0022902D14FF40C
:105A4000806103E0032904D14FF480510148FBF742
:105A500040BA704700100240012902D14FF4807112
:105A600008E0022902D14FF4806103E0032904D148
:105A70004FF480510148FBF72EBA704700100240E6
:105A8000012901D1FDF7D6BD022901D1FDF7E4BD01
:105A9000032901D1FDF7F4BD9FED010A704700BF56
:105AA00000000000012901D1022006E0022901D1F5
:105AB000032002E0032902D10420FDF747BB9FED3C
:105AC000010A704700000000012910B514460FD1EB
:105AD000002A04DD90B2FEF7A5FD002004E00020BE
:105AE000FEF7A0FD604280B2BDE81040FEF7AABDFF
:105AF00002290FD1002A04DD90B2FEF7B3FD002089
:105B000004E00020FEF7AEFD604280B2BDE8104028
